{
  "_format": "hh-sol-artifact-1",
  "contractName": "ProjectCadena",
  "sourceName": "contracts/ProjectCadena.sol",
  "abi": [
    {
      "inputs": [],
      "stateMutability": "nonpayable",
      "type": "constructor"
    },
    {
      "anonymous": false,
      "inputs": [
        {
          "indexed": true,
          "internalType": "address",
          "name": "owner",
          "type": "address"
        },
        {
          "indexed": true,
          "internalType": "address",
          "name": "spender",
          "type": "address"
        },
        {
          "indexed": false,
          "internalType": "uint256",
          "name": "value",
          "type": "uint256"
        }
      ],
      "name": "Approval",
      "type": "event"
    },
    {
      "anonymous": false,
      "inputs": [
        {
          "indexed": true,
          "internalType": "address",
          "name": "previousOwner",
          "type": "address"
        },
        {
          "indexed": true,
          "internalType": "address",
          "name": "newOwner",
          "type": "address"
        }
      ],
      "name": "OwnershipTransferred",
      "type": "event"
    },
    {
      "anonymous": false,
      "inputs": [
        {
          "indexed": true,
          "internalType": "address",
          "name": "from",
          "type": "address"
        },
        {
          "indexed": true,
          "internalType": "address",
          "name": "to",
          "type": "address"
        },
        {
          "indexed": false,
          "internalType": "uint256",
          "name": "value",
          "type": "uint256"
        }
      ],
      "name": "Transfer",
      "type": "event"
    },
    {
      "anonymous": false,
      "inputs": [
        {
          "indexed": true,
          "internalType": "address",
          "name": "owner",
          "type": "address"
        },
        {
          "indexed": false,
          "internalType": "uint256",
          "name": "amount",
          "type": "uint256"
        },
        {
          "indexed": false,
          "internalType": "string",
          "name": "message",
          "type": "string"
        }
      ],
      "name": "additionalTokensMinted",
      "type": "event"
    },
    {
      "anonymous": false,
      "inputs": [
        {
          "indexed": true,
          "internalType": "address",
          "name": "owner",
          "type": "address"
        },
        {
          "indexed": false,
          "internalType": "uint256",
          "name": "amount",
          "type": "uint256"
        },
        {
          "indexed": false,
          "internalType": "string",
          "name": "message",
          "type": "string"
        }
      ],
      "name": "tokensBurned",
      "type": "event"
    },
    {
      "anonymous": false,
      "inputs": [
        {
          "indexed": true,
          "internalType": "address",
          "name": "owner",
          "type": "address"
        },
        {
          "indexed": false,
          "internalType": "uint256",
          "name": "amount",
          "type": "uint256"
        },
        {
          "indexed": false,
          "internalType": "string",
          "name": "message",
          "type": "string"
        }
      ],
      "name": "tokensMinted",
      "type": "event"
    },
    {
      "inputs": [
        {
          "internalType": "address",
          "name": "owner",
          "type": "address"
        },
        {
          "internalType": "address",
          "name": "spender",
          "type": "address"
        }
      ],
      "name": "allowance",
      "outputs": [
        {
          "internalType": "uint256",
          "name": "",
          "type": "uint256"
        }
      ],
      "stateMutability": "view",
      "type": "function"
    },
    {
      "inputs": [
        {
          "internalType": "address",
          "name": "spender",
          "type": "address"
        },
        {
          "internalType": "uint256",
          "name": "amount",
          "type": "uint256"
        }
      ],
      "name": "approve",
      "outputs": [
        {
          "internalType": "bool",
          "name": "",
          "type": "bool"
        }
      ],
      "stateMutability": "nonpayable",
      "type": "function"
    },
    {
      "inputs": [
        {
          "internalType": "address",
          "name": "account",
          "type": "address"
        }
      ],
      "name": "balanceOf",
      "outputs": [
        {
          "internalType": "uint256",
          "name": "",
          "type": "uint256"
        }
      ],
      "stateMutability": "view",
      "type": "function"
    },
    {
      "inputs": [
        {
          "internalType": "uint256",
          "name": "amount",
          "type": "uint256"
        }
      ],
      "name": "burn",
      "outputs": [],
      "stateMutability": "nonpayable",
      "type": "function"
    },
    {
      "inputs": [
        {
          "internalType": "address",
          "name": "account",
          "type": "address"
        },
        {
          "internalType": "uint256",
          "name": "amount",
          "type": "uint256"
        }
      ],
      "name": "burnFrom",
      "outputs": [],
      "stateMutability": "nonpayable",
      "type": "function"
    },
    {
      "inputs": [],
      "name": "companyName",
      "outputs": [
        {
          "internalType": "string",
          "name": "",
          "type": "string"
        }
      ],
      "stateMutability": "view",
      "type": "function"
    },
    {
      "inputs": [
        {
          "internalType": "address",
          "name": "",
          "type": "address"
        }
      ],
      "name": "customerBalance",
      "outputs": [
        {
          "internalType": "uint256",
          "name": "",
          "type": "uint256"
        }
      ],
      "stateMutability": "view",
      "type": "function"
    },
    {
      "inputs": [],
      "name": "decimals",
      "outputs": [
        {
          "internalType": "uint8",
          "name": "",
          "type": "uint8"
        }
      ],
      "stateMutability": "view",
      "type": "function"
    },
    {
      "inputs": [
        {
          "internalType": "address",
          "name": "spender",
          "type": "address"
        },
        {
          "internalType": "uint256",
          "name": "subtractedValue",
          "type": "uint256"
        }
      ],
      "name": "decreaseAllowance",
      "outputs": [
        {
          "internalType": "bool",
          "name": "",
          "type": "bool"
        }
      ],
      "stateMutability": "nonpayable",
      "type": "function"
    },
    {
      "inputs": [],
      "name": "depositMoney",
      "outputs": [],
      "stateMutability": "payable",
      "type": "function"
    },
    {
      "inputs": [],
      "name": "getCompanyBalance",
      "outputs": [
        {
          "internalType": "uint256",
          "name": "",
          "type": "uint256"
        }
      ],
      "stateMutability": "view",
      "type": "function"
    },
    {
      "inputs": [],
      "name": "getCustomerBalance",
      "outputs": [
        {
          "internalType": "uint256",
          "name": "",
          "type": "uint256"
        }
      ],
      "stateMutability": "view",
      "type": "function"
    },
    {
      "inputs": [
        {
          "internalType": "address",
          "name": "spender",
          "type": "address"
        },
        {
          "internalType": "uint256",
          "name": "addedValue",
          "type": "uint256"
        }
      ],
      "name": "increaseAllowance",
      "outputs": [
        {
          "internalType": "bool",
          "name": "",
          "type": "bool"
        }
      ],
      "stateMutability": "nonpayable",
      "type": "function"
    },
    {
      "inputs": [
        {
          "internalType": "address",
          "name": "to",
          "type": "address"
        },
        {
          "internalType": "uint256",
          "name": "amount",
          "type": "uint256"
        }
      ],
      "name": "mint",
      "outputs": [],
      "stateMutability": "nonpayable",
      "type": "function"
    },
    {
      "inputs": [],
      "name": "name",
      "outputs": [
        {
          "internalType": "string",
          "name": "",
          "type": "string"
        }
      ],
      "stateMutability": "view",
      "type": "function"
    },
    {
      "inputs": [],
      "name": "owner",
      "outputs": [
        {
          "internalType": "address",
          "name": "",
          "type": "address"
        }
      ],
      "stateMutability": "view",
      "type": "function"
    },
    {
      "inputs": [],
      "name": "renounceOwnership",
      "outputs": [],
      "stateMutability": "nonpayable",
      "type": "function"
    },
    {
      "inputs": [
        {
          "internalType": "string",
          "name": "_name",
          "type": "string"
        }
      ],
      "name": "setCompanyName",
      "outputs": [],
      "stateMutability": "nonpayable",
      "type": "function"
    },
    {
      "inputs": [],
      "name": "symbol",
      "outputs": [
        {
          "internalType": "string",
          "name": "",
          "type": "string"
        }
      ],
      "stateMutability": "view",
      "type": "function"
    },
    {
      "inputs": [],
      "name": "totalSupply",
      "outputs": [
        {
          "internalType": "uint256",
          "name": "",
          "type": "uint256"
        }
      ],
      "stateMutability": "view",
      "type": "function"
    },
    {
      "inputs": [
        {
          "internalType": "address",
          "name": "to",
          "type": "address"
        },
        {
          "internalType": "uint256",
          "name": "amount",
          "type": "uint256"
        }
      ],
      "name": "transfer",
      "outputs": [
        {
          "internalType": "bool",
          "name": "",
          "type": "bool"
        }
      ],
      "stateMutability": "nonpayable",
      "type": "function"
    },
    {
      "inputs": [
        {
          "internalType": "address",
          "name": "from",
          "type": "address"
        },
        {
          "internalType": "address",
          "name": "to",
          "type": "address"
        },
        {
          "internalType": "uint256",
          "name": "amount",
          "type": "uint256"
        }
      ],
      "name": "transferFrom",
      "outputs": [
        {
          "internalType": "bool",
          "name": "",
          "type": "bool"
        }
      ],
      "stateMutability": "nonpayable",
      "type": "function"
    },
    {
      "inputs": [
        {
          "internalType": "address",
          "name": "newOwner",
          "type": "address"
        }
      ],
      "name": "transferOwnership",
      "outputs": [],
      "stateMutability": "nonpayable",
      "type": "function"
    },
    {
      "inputs": [
        {
          "internalType": "address payable",
          "name": "_to",
          "type": "address"
        },
        {
          "internalType": "uint256",
          "name": "_total",
          "type": "uint256"
        }
      ],
      "name": "withDrawMoney",
      "outputs": [],
      "stateMutability": "payable",
      "type": "function"
    }
  ],
  "bytecode": "0x60806040523480156200001157600080fd5b506040518060400160405280600a81526020017f436164656e61436f696e000000000000000000000000000000000000000000008152506040518060400160405280600381526020017f43414300000000000000000000000000000000000000000000000000000000008152508160039080519060200190620000969291906200043a565b508060049080519060200190620000af9291906200043a565b505050620000d2620000c6620001e060201b60201c565b620001e860201b60201c565b6040518060400160405280600e81526020017f436164656e612070726f6a656374000000000000000000000000000000000000815250600690805190602001906200011f9291906200043a565b506200015e3362000135620002ae60201b60201c565b600a620001439190620006b9565b6103e8620001529190620007f6565b620002b760201b60201c565b3373ffffffffffffffffffffffffffffffffffffffff167f8d54cf4376f9d10619fbb6aded215dcdffc1b80415e0750f5064018278632d07620001a6620002ae60201b60201c565b600a620001b49190620006b9565b6103e8620001c39190620007f6565b604051620001d29190620005be565b60405180910390a26200090f565b600033905090565b6000600560009054906101000a900473ffffffffffffffffffffffffffffffffffffffff16905081600560006101000a81548173ffffffffffffffffffffffffffffffffffffffff021916908373ffffffffffffffffffffffffffffffffffffffff1602179055508173ffffffffffffffffffffffffffffffffffffffff168173ffffffffffffffffffffffffffffffffffffffff167f8be0079c531659141344cd1fd0a4f28419497f9722a3daafe3b4186f6b6457e060405160405180910390a35050565b60006012905090565b600073ffffffffffffffffffffffffffffffffffffffff168273ffffffffffffffffffffffffffffffffffffffff1614156200032a576040517f08c379a000000000000000000000000000000000000000000000000000000000815260040162000321906200057f565b60405180910390fd5b6200033e600083836200043060201b60201c565b806002600082825462000352919062000601565b92505081905550806000808473ffffffffffffffffffffffffffffffffffffffff1673ffffffffffffffffffffffffffffffffffffffff1681526020019081526020016000206000828254620003a9919062000601565b925050819055508173ffffffffffffffffffffffffffffffffffffffff16600073ffffffffffffffffffffffffffffffffffffffff167fddf252ad1be2c89b69c2b068fc378daa952ba7f163c4a11628f55a4df523b3ef83604051620004109190620005a1565b60405180910390a36200042c600083836200043560201b60201c565b5050565b505050565b505050565b82805462000448906200086e565b90600052602060002090601f0160209004810192826200046c5760008555620004b8565b82601f106200048757805160ff1916838001178555620004b8565b82800160010185558215620004b8579182015b82811115620004b75782518255916020019190600101906200049a565b5b509050620004c79190620004cb565b5090565b5b80821115620004e6576000816000905550600101620004cc565b5090565b6000620004f9600f83620005f0565b91507f496e697469616c20737570706c792e00000000000000000000000000000000006000830152602082019050919050565b60006200053b601f83620005f0565b91507f45524332303a206d696e7420746f20746865207a65726f2061646472657373006000830152602082019050919050565b620005798162000857565b82525050565b600060208201905081810360008301526200059a816200052c565b9050919050565b6000602082019050620005b860008301846200056e565b92915050565b6000604082019050620005d560008301846200056e565b8181036020830152620005e881620004ea565b905092915050565b600082825260208201905092915050565b60006200060e8262000857565b91506200061b8362000857565b9250827fffffffffffffffffffffffffffffffffffffffffffffffffffffffffffffffff03821115620006535762000652620008a4565b5b828201905092915050565b6000808291508390505b6001851115620006b057808604811115620006885762000687620008a4565b5b6001851615620006985780820291505b8081029050620006a88562000902565b945062000668565b94509492505050565b6000620006c68262000857565b9150620006d38362000861565b9250620007027fffffffffffffffffffffffffffffffffffffffffffffffffffffffffffffffff84846200070a565b905092915050565b6000826200071c5760019050620007ef565b816200072c5760009050620007ef565b8160018114620007455760028114620007505762000786565b6001915050620007ef565b60ff841115620007655762000764620008a4565b5b8360020a9150848211156200077f576200077e620008a4565b5b50620007ef565b5060208310610133831016604e8410600b8410161715620007c05782820a905083811115620007ba57620007b9620008a4565b5b620007ef565b620007cf84848460016200065e565b92509050818404811115620007e957620007e8620008a4565b5b81810290505b9392505050565b6000620008038262000857565b9150620008108362000857565b9250817fffffffffffffffffffffffffffffffffffffffffffffffffffffffffffffffff04831182151516156200084c576200084b620008a4565b5b828202905092915050565b6000819050919050565b600060ff82169050919050565b600060028204905060018216806200088757607f821691505b602082108114156200089e576200089d620008d3565b5b50919050565b7f4e487b7100000000000000000000000000000000000000000000000000000000600052601160045260246000fd5b7f4e487b7100000000000000000000000000000000000000000000000000000000600052602260045260246000fd5b60008160011c9050919050565b612845806200091f6000396000f3fe60806040526004361061014b5760003560e01c8063715018a6116100b6578063a9059cbb1161006f578063a9059cbb14610487578063b39d7b7c146104c4578063dd62ed3e146104e0578063eb3313f01461051d578063f2fde38b14610546578063f5ec2eed1461056f5761014b565b8063715018a61461038957806379cc6790146103a05780638da5cb5b146103c957806395d89b41146103f4578063a457c2d71461041f578063a853409a1461045c5761014b565b806337ebe47b1161010857806337ebe47b14610255578063395093511461029257806340c10f19146102cf57806342966c68146102f857806344ba0fe81461032157806370a082311461034c5761014b565b806306fdde0314610150578063095ea7b31461017b57806316c05aa2146101b857806318160ddd146101c257806323b872dd146101ed578063313ce5671461022a575b600080fd5b34801561015c57600080fd5b5061016561059a565b60405161017291906122d6565b60405180910390f35b34801561018757600080fd5b506101a2600480360381019061019d9190611c09565b61062c565b6040516101af91906122bb565b60405180910390f35b6101c061064f565b005b3480156101ce57600080fd5b506101d76106eb565b6040516101e491906124b8565b60405180910390f35b3480156101f957600080fd5b50610214600480360381019061020f9190611bba565b6106f5565b60405161022191906122bb565b60405180910390f35b34801561023657600080fd5b5061023f610724565b60405161024c919061252f565b60405180910390f35b34801561026157600080fd5b5061027c60048036038101906102779190611b19565b61072d565b60405161028991906124b8565b60405180910390f35b34801561029e57600080fd5b506102b960048036038101906102b49190611c09565b610745565b6040516102c691906122bb565b60405180910390f35b3480156102db57600080fd5b506102f660048036038101906102f19190611c09565b6107ef565b005b34801561030457600080fd5b5061031f600480360381019061031a9190611c86565b6108c7565b005b34801561032d57600080fd5b5061033661099e565b60405161034391906124b8565b60405180910390f35b34801561035857600080fd5b50610373600480360381019061036e9190611b19565b6109a6565b60405161038091906124b8565b60405180910390f35b34801561039557600080fd5b5061039e6109ee565b005b3480156103ac57600080fd5b506103c760048036038101906103c29190611c09565b610a76565b005b3480156103d557600080fd5b506103de610a96565b6040516103eb91906122a0565b60405180910390f35b34801561040057600080fd5b50610409610ac0565b60405161041691906122d6565b60405180910390f35b34801561042b57600080fd5b5061044660048036038101906104419190611c09565b610b52565b60405161045391906122bb565b60405180910390f35b34801561046857600080fd5b50610471610c3c565b60405161047e91906124b8565b60405180910390f35b34801561049357600080fd5b506104ae60048036038101906104a99190611c09565b610cff565b6040516104bb91906122bb565b60405180910390f35b6104de60048036038101906104d99190611b42565b610d22565b005b3480156104ec57600080fd5b5061050760048036038101906105029190611b7e565b610e45565b60405161051491906124b8565b60405180910390f35b34801561052957600080fd5b50610544600480360381019061053f9190611c45565b610ecc565b005b34801561055257600080fd5b5061056d60048036038101906105689190611b19565b610f62565b005b34801561057b57600080fd5b5061058461105a565b60405161059191906122d6565b60405180910390f35b6060600380546105a9906126fa565b80601f01602080910402602001604051908101604052809291908181526020018280546105d5906126fa565b80156106225780601f106105f757610100808354040283529160200191610622565b820191906000526020600020905b81548152906001019060200180831161060557829003601f168201915b5050505050905090565b6000806106376110e8565b90506106448185856110f0565b600191505092915050565b6000341415610693576040517f08c379a000000000000000000000000000000000000000000000000000000000815260040161068a90612418565b60405180910390fd5b34600760003373ffffffffffffffffffffffffffffffffffffffff1673ffffffffffffffffffffffffffffffffffffffff16815260200190815260200160002060008282546106e291906125c7565b92505081905550565b6000600254905090565b6000806107006110e8565b905061070d8582856112bb565b610718858585611347565b60019150509392505050565b60006012905090565b60076020528060005260406000206000915090505481565b6000806107506110e8565b90506107e4818585600160008673ffffffffffffffffffffffffffffffffffffffff1673ffffffffffffffffffffffffffffffffffffffff16815260200190815260200160002060008973ffffffffffffffffffffffffffffffffffffffff1673ffffffffffffffffffffffffffffffffffffffff168152602001908152602001600020546107df91906125c7565b6110f0565b600191505092915050565b6107f76110e8565b73ffffffffffffffffffffffffffffffffffffffff16610815610a96565b73ffffffffffffffffffffffffffffffffffffffff161461086b576040517f08c379a0000000000000000000000000000000000000000000000000000000008152600401610862906123b8565b60405180910390fd5b61087582826115c8565b3373ffffffffffffffffffffffffffffffffffffffff167fc31b604bce0888a4f5e36e76eee33516a5fff7a5d58ac7dcead8174c323eebf2826040516108bb9190612501565b60405180910390a25050565b6108cf6110e8565b73ffffffffffffffffffffffffffffffffffffffff166108ed610a96565b73ffffffffffffffffffffffffffffffffffffffff1614610943576040517f08c379a000000000000000000000000000000000000000000000000000000000815260040161093a906123b8565b60405180910390fd5b61094d3382611728565b3373ffffffffffffffffffffffffffffffffffffffff167fcde716650b13ae41f235d679e62500d67355bc41802e6cfc087b67a7850d975f8260405161099391906124d3565b60405180910390a250565b600047905090565b60008060008373ffffffffffffffffffffffffffffffffffffffff1673ffffffffffffffffffffffffffffffffffffffff168152602001908152602001600020549050919050565b6109f66110e8565b73ffffffffffffffffffffffffffffffffffffffff16610a14610a96565b73ffffffffffffffffffffffffffffffffffffffff1614610a6a576040517f08c379a0000000000000000000000000000000000000000000000000000000008152600401610a61906123b8565b60405180910390fd5b610a7460006118ff565b565b610a8882610a826110e8565b836112bb565b610a928282611728565b5050565b6000600560009054906101000a900473ffffffffffffffffffffffffffffffffffffffff16905090565b606060048054610acf906126fa565b80601f0160208091040260200160405190810160405280929190818152602001828054610afb906126fa565b8015610b485780601f10610b1d57610100808354040283529160200191610b48565b820191906000526020600020905b815481529060010190602001808311610b2b57829003601f168201915b5050505050905090565b600080610b5d6110e8565b90506000600160008373ffffffffffffffffffffffffffffffffffffffff1673ffffffffffffffffffffffffffffffffffffffff16815260200190815260200160002060008673ffffffffffffffffffffffffffffffffffffffff1673ffffffffffffffffffffffffffffffffffffffff16815260200190815260200160002054905083811015610c23576040517f08c379a0000000000000000000000000000000000000000000000000000000008152600401610c1a90612458565b60405180910390fd5b610c3082868684036110f0565b60019250505092915050565b6000610c466110e8565b73ffffffffffffffffffffffffffffffffffffffff16610c64610a96565b73ffffffffffffffffffffffffffffffffffffffff1614610cba576040517f08c379a0000000000000000000000000000000000000000000000000000000008152600401610cb1906123b8565b60405180910390fd5b600760003373ffffffffffffffffffffffffffffffffffffffff1673ffffffffffffffffffffffffffffffffffffffff16815260200190815260200160002054905090565b600080610d0a6110e8565b9050610d17818585611347565b600191505092915050565b600760003373ffffffffffffffffffffffffffffffffffffffff1673ffffffffffffffffffffffffffffffffffffffff16815260200190815260200160002054811115610da4576040517f08c379a0000000000000000000000000000000000000000000000000000000008152600401610d9b90612478565b60405180910390fd5b80600760003373ffffffffffffffffffffffffffffffffffffffff1673ffffffffffffffffffffffffffffffffffffffff1681526020019081526020016000206000828254610df3919061261d565b925050819055508173ffffffffffffffffffffffffffffffffffffffff166108fc829081150290604051600060405180830381858888f19350505050158015610e40573d6000803e3d6000fd5b505050565b6000600160008473ffffffffffffffffffffffffffffffffffffffff1673ffffffffffffffffffffffffffffffffffffffff16815260200190815260200160002060008373ffffffffffffffffffffffffffffffffffffffff1673ffffffffffffffffffffffffffffffffffffffff16815260200190815260200160002054905092915050565b610ed46110e8565b73ffffffffffffffffffffffffffffffffffffffff16610ef2610a96565b73ffffffffffffffffffffffffffffffffffffffff1614610f48576040517f08c379a0000000000000000000000000000000000000000000000000000000008152600401610f3f906123b8565b60405180910390fd5b8060069080519060200190610f5e9291906119cf565b5050565b610f6a6110e8565b73ffffffffffffffffffffffffffffffffffffffff16610f88610a96565b73ffffffffffffffffffffffffffffffffffffffff1614610fde576040517f08c379a0000000000000000000000000000000000000000000000000000000008152600401610fd5906123b8565b60405180910390fd5b600073ffffffffffffffffffffffffffffffffffffffff168173ffffffffffffffffffffffffffffffffffffffff16141561104e576040517f08c379a000000000000000000000000000000000000000000000000000000000815260040161104590612338565b60405180910390fd5b611057816118ff565b50565b60068054611067906126fa565b80601f0160208091040260200160405190810160405280929190818152602001828054611093906126fa565b80156110e05780601f106110b5576101008083540402835291602001916110e0565b820191906000526020600020905b8154815290600101906020018083116110c357829003601f168201915b505050505081565b600033905090565b600073ffffffffffffffffffffffffffffffffffffffff168373ffffffffffffffffffffffffffffffffffffffff161415611160576040517f08c379a000000000000000000000000000000000000000000000000000000000815260040161115790612438565b60405180910390fd5b600073ffffffffffffffffffffffffffffffffffffffff168273ffffffffffffffffffffffffffffffffffffffff1614156111d0576040517f08c379a00000000000000000000000000000000000000000000000000000000081526004016111c790612358565b60405180910390fd5b80600160008573ffffffffffffffffffffffffffffffffffffffff1673ffffffffffffffffffffffffffffffffffffffff16815260200190815260200160002060008473ffffffffffffffffffffffffffffffffffffffff1673ffffffffffffffffffffffffffffffffffffffff168152602001908152602001600020819055508173ffffffffffffffffffffffffffffffffffffffff168373ffffffffffffffffffffffffffffffffffffffff167f8c5be1e5ebec7d5bd14f71427d1e84f3dd0314c0f7b2291e5b200ac8c7c3b925836040516112ae91906124b8565b60405180910390a3505050565b60006112c78484610e45565b90507fffffffffffffffffffffffffffffffffffffffffffffffffffffffffffffffff81146113415781811015611333576040517f08c379a000000000000000000000000000000000000000000000000000000000815260040161132a90612378565b60405180910390fd5b61134084848484036110f0565b5b50505050565b600073ffffffffffffffffffffffffffffffffffffffff168373ffffffffffffffffffffffffffffffffffffffff1614156113b7576040517f08c379a00000000000000000000000000000000000000000000000000000000081526004016113ae906123f8565b60405180910390fd5b600073ffffffffffffffffffffffffffffffffffffffff168273ffffffffffffffffffffffffffffffffffffffff161415611427576040517f08c379a000000000000000000000000000000000000000000000000000000000815260040161141e906122f8565b60405180910390fd5b6114328383836119c5565b60008060008573ffffffffffffffffffffffffffffffffffffffff1673ffffffffffffffffffffffffffffffffffffffff168152602001908152602001600020549050818110156114b8576040517f08c379a00000000000000000000000000000000000000000000000000000000081526004016114af90612398565b60405180910390fd5b8181036000808673ffffffffffffffffffffffffffffffffffffffff1673ffffffffffffffffffffffffffffffffffffffff16815260200190815260200160002081905550816000808573ffffffffffffffffffffffffffffffffffffffff1673ffffffffffffffffffffffffffffffffffffffff168152602001908152602001600020600082825461154b91906125c7565b925050819055508273ffffffffffffffffffffffffffffffffffffffff168473ffffffffffffffffffffffffffffffffffffffff167fddf252ad1be2c89b69c2b068fc378daa952ba7f163c4a11628f55a4df523b3ef846040516115af91906124b8565b60405180910390a36115c28484846119ca565b50505050565b600073ffffffffffffffffffffffffffffffffffffffff168273ffffffffffffffffffffffffffffffffffffffff161415611638576040517f08c379a000000000000000000000000000000000000000000000000000000000815260040161162f90612498565b60405180910390fd5b611644600083836119c5565b806002600082825461165691906125c7565b92505081905550806000808473ffffffffffffffffffffffffffffffffffffffff1673ffffffffffffffffffffffffffffffffffffffff16815260200190815260200160002060008282546116ab91906125c7565b925050819055508173ffffffffffffffffffffffffffffffffffffffff16600073ffffffffffffffffffffffffffffffffffffffff167fddf252ad1be2c89b69c2b068fc378daa952ba7f163c4a11628f55a4df523b3ef8360405161171091906124b8565b60405180910390a3611724600083836119ca565b5050565b600073ffffffffffffffffffffffffffffffffffffffff168273ffffffffffffffffffffffffffffffffffffffff161415611798576040517f08c379a000000000000000000000000000000000000000000000000000000000815260040161178f906123d8565b60405180910390fd5b6117a4826000836119c5565b60008060008473ffffffffffffffffffffffffffffffffffffffff1673ffffffffffffffffffffffffffffffffffffffff1681526020019081526020016000205490508181101561182a576040517f08c379a000000000000000000000000000000000000000000000000000000000815260040161182190612318565b60405180910390fd5b8181036000808573ffffffffffffffffffffffffffffffffffffffff1673ffffffffffffffffffffffffffffffffffffffff168152602001908152602001600020819055508160026000828254611881919061261d565b92505081905550600073ffffffffffffffffffffffffffffffffffffffff168373ffffffffffffffffffffffffffffffffffffffff167fddf252ad1be2c89b69c2b068fc378daa952ba7f163c4a11628f55a4df523b3ef846040516118e691906124b8565b60405180910390a36118fa836000846119ca565b505050565b6000600560009054906101000a900473ffffffffffffffffffffffffffffffffffffffff16905081600560006101000a81548173ffffffffffffffffffffffffffffffffffffffff021916908373ffffffffffffffffffffffffffffffffffffffff1602179055508173ffffffffffffffffffffffffffffffffffffffff168173ffffffffffffffffffffffffffffffffffffffff167f8be0079c531659141344cd1fd0a4f28419497f9722a3daafe3b4186f6b6457e060405160405180910390a35050565b505050565b505050565b8280546119db906126fa565b90600052602060002090601f0160209004810192826119fd5760008555611a44565b82601f10611a1657805160ff1916838001178555611a44565b82800160010185558215611a44579182015b82811115611a43578251825591602001919060010190611a28565b5b509050611a519190611a55565b5090565b5b80821115611a6e576000816000905550600101611a56565b5090565b6000611a85611a808461257b565b61254a565b905082815260208101848484011115611a9d57600080fd5b611aa88482856126b8565b509392505050565b600081359050611abf816127ca565b92915050565b600081359050611ad4816127e1565b92915050565b600082601f830112611aeb57600080fd5b8135611afb848260208601611a72565b91505092915050565b600081359050611b13816127f8565b92915050565b600060208284031215611b2b57600080fd5b6000611b3984828501611ab0565b91505092915050565b60008060408385031215611b5557600080fd5b6000611b6385828601611ac5565b9250506020611b7485828601611b04565b9150509250929050565b60008060408385031215611b9157600080fd5b6000611b9f85828601611ab0565b9250506020611bb085828601611ab0565b9150509250929050565b600080600060608486031215611bcf57600080fd5b6000611bdd86828701611ab0565b9350506020611bee86828701611ab0565b9250506040611bff86828701611b04565b9150509250925092565b60008060408385031215611c1c57600080fd5b6000611c2a85828601611ab0565b9250506020611c3b85828601611b04565b9150509250929050565b600060208284031215611c5757600080fd5b600082013567ffffffffffffffff811115611c7157600080fd5b611c7d84828501611ada565b91505092915050565b600060208284031215611c9857600080fd5b6000611ca684828501611b04565b91505092915050565b611cb881612651565b82525050565b611cc781612675565b82525050565b6000611cd8826125ab565b611ce281856125b6565b9350611cf28185602086016126c7565b611cfb816127b9565b840191505092915050565b6000611d136023836125b6565b91507f45524332303a207472616e7366657220746f20746865207a65726f206164647260008301527f65737300000000000000000000000000000000000000000000000000000000006020830152604082019050919050565b6000611d796022836125b6565b91507f45524332303a206275726e20616d6f756e7420657863656564732062616c616e60008301527f63650000000000000000000000000000000000000000000000000000000000006020830152604082019050919050565b6000611ddf6026836125b6565b91507f4f776e61626c653a206e6577206f776e657220697320746865207a65726f206160008301527f64647265737300000000000000000000000000000000000000000000000000006020830152604082019050919050565b6000611e456022836125b6565b91507f45524332303a20617070726f766520746f20746865207a65726f20616464726560008301527f73730000000000000000000000000000000000000000000000000000000000006020830152604082019050919050565b6000611eab601d836125b6565b91507f45524332303a20696e73756666696369656e7420616c6c6f77616e63650000006000830152602082019050919050565b6000611eeb6026836125b6565b91507f45524332303a207472616e7366657220616d6f756e742065786365656473206260008301527f616c616e636500000000000000000000000000000000000000000000000000006020830152604082019050919050565b6000611f51600e836125b6565b91507f546f6b656e73206275726e65642e0000000000000000000000000000000000006000830152602082019050919050565b6000611f916020836125b6565b91507f4f776e61626c653a2063616c6c6572206973206e6f7420746865206f776e65726000830152602082019050919050565b6000611fd16021836125b6565b91507f45524332303a206275726e2066726f6d20746865207a65726f2061646472657360008301527f73000000000000000000000000000000000000000000000000000000000000006020830152604082019050919050565b60006120376019836125b6565b91507f4164646974696f6e616c20746f6b656e73206d696e7465642e000000000000006000830152602082019050919050565b60006120776025836125b6565b91507f45524332303a207472616e736665722066726f6d20746865207a65726f20616460008301527f64726573730000000000000000000000000000000000000000000000000000006020830152604082019050919050565b60006120dd601b836125b6565b91507f506c65617365206465706f73697420736f6d6520616d6f756e742100000000006000830152602082019050919050565b600061211d6024836125b6565b91507f45524332303a20617070726f76652066726f6d20746865207a65726f2061646460008301527f72657373000000000000000000000000000000000000000000000000000000006020830152604082019050919050565b60006121836025836125b6565b91507f45524332303a2064656372656173656420616c6c6f77616e63652062656c6f7760008301527f207a65726f0000000000000000000000000000000000000000000000000000006020830152604082019050919050565b60006121e96026836125b6565b91507f596f75206861766520696e7375666669656e742066756e647320746f2077697460008301527f68647261772e00000000000000000000000000000000000000000000000000006020830152604082019050919050565b600061224f601f836125b6565b91507f45524332303a206d696e7420746f20746865207a65726f2061646472657373006000830152602082019050919050565b61228b816126a1565b82525050565b61229a816126ab565b82525050565b60006020820190506122b56000830184611caf565b92915050565b60006020820190506122d06000830184611cbe565b92915050565b600060208201905081810360008301526122f08184611ccd565b905092915050565b6000602082019050818103600083015261231181611d06565b9050919050565b6000602082019050818103600083015261233181611d6c565b9050919050565b6000602082019050818103600083015261235181611dd2565b9050919050565b6000602082019050818103600083015261237181611e38565b9050919050565b6000602082019050818103600083015261239181611e9e565b9050919050565b600060208201905081810360008301526123b181611ede565b9050919050565b600060208201905081810360008301526123d181611f84565b9050919050565b600060208201905081810360008301526123f181611fc4565b9050919050565b600060208201905081810360008301526124118161206a565b9050919050565b60006020820190508181036000830152612431816120d0565b9050919050565b6000602082019050818103600083015261245181612110565b9050919050565b6000602082019050818103600083015261247181612176565b9050919050565b60006020820190508181036000830152612491816121dc565b9050919050565b600060208201905081810360008301526124b181612242565b9050919050565b60006020820190506124cd6000830184612282565b92915050565b60006040820190506124e86000830184612282565b81810360208301526124f981611f44565b905092915050565b60006040820190506125166000830184612282565b81810360208301526125278161202a565b905092915050565b60006020820190506125446000830184612291565b92915050565b6000604051905081810181811067ffffffffffffffff821117156125715761257061278a565b5b8060405250919050565b600067ffffffffffffffff8211156125965761259561278a565b5b601f19601f8301169050602081019050919050565b600081519050919050565b600082825260208201905092915050565b60006125d2826126a1565b91506125dd836126a1565b9250827fffffffffffffffffffffffffffffffffffffffffffffffffffffffffffffffff038211156126125761261161272c565b5b828201905092915050565b6000612628826126a1565b9150612633836126a1565b9250828210156126465761264561272c565b5b828203905092915050565b600061265c82612681565b9050919050565b600061266e82612681565b9050919050565b60008115159050919050565b600073ffffffffffffffffffffffffffffffffffffffff82169050919050565b6000819050919050565b600060ff82169050919050565b82818337600083830152505050565b60005b838110156126e55780820151818401526020810190506126ca565b838111156126f4576000848401525b50505050565b6000600282049050600182168061271257607f821691505b602082108114156127265761272561275b565b5b50919050565b7f4e487b7100000000000000000000000000000000000000000000000000000000600052601160045260246000fd5b7f4e487b7100000000000000000000000000000000000000000000000000000000600052602260045260246000fd5b7f4e487b7100000000000000000000000000000000000000000000000000000000600052604160045260246000fd5b6000601f19601f8301169050919050565b6127d381612651565b81146127de57600080fd5b50565b6127ea81612663565b81146127f557600080fd5b50565b612801816126a1565b811461280c57600080fd5b5056fea2646970667358221220e4bfda5f5bbca317837729935eb0ff8be11157f2b986ae2494752038807ccb7564736f6c63430008000033",
  "linkReferences": {},
  "deployedLinkReferences": {}
}